:020000040800F2
:1000000040CE0020F16B0008E90E0008EB0E00085E
:10001000EF0E0008F30E0008F70E000800000000C5
:10002000000000000000000000000000FB0E0008BF
:10003000FD0E000800000000FF0E0008010F000880
:100040000B6C00080B6C00080B6C00080B6C0008B4
:100050000B6C00080B6C00080B6C00080B6C0008A4
:100060000B6C00080B6C00080B6C00080B6C000894
:100070000B6C00080B6C00080B6C00080B6C000884
:100080000B6C00080B6C00080B6C00080B6C000874
:100090000B6C00080B6C00080B6C00080B6C000864
:1000A0000B6C00080B6C00080B6C00080B6C000854
:1000B0000B6C00080B6C00080B6C00080B6C000844
:1000C0000B6C00080B6C00080B6C00080B6C000834
:1000D0000B6C0008656B00080B6C00080B6C0008CB
:1000E0000B6C00080B6C00080B6C00080B6C000814
:1000F0000B6C00080B6C00080B6C00080B6C000804
:100100000B6C0008096400080B6C00080B6C0008FD
:100110000B6C00080B6C0008A96900080B6C000848
:100120000B6C00080B6C00080B6C00080B6C0008D3
:1001300000F002F800F0B0F80AA090E8000C824449
:100140008344AAF10107DA4501D100F0A5F8AFF226
:10015000090EBAE80F0013F0010F18BFFB1A43F0A5
:1001600001031847FC7B01001C7C01000A444FF08E
:10017000000C10F8013B13F0070408BF10F8014B06
:100180001D1108BF10F8015B641E05D010F8016B4B
:10019000641E01F8016BF9D113F0080F1EBF10F8AF
:1001A000014BAD1C0C1B09D16D1E58BF01F801CBD2
:1001B000FAD505E014F8016B01F8016B6D1EF9D555
:1001C0009142D6D37047000000230024002500266A
:1001D000103A28BF78C1FBD8520728BF30C148BFAA
:1001E0000B6070476E2914F0DF80702913F0D785FB
:1001F000662915F01C86652915F01986672915F002
:1002000016866129AFF3008003681B0A28BF41F0FE
:100210008001692913F04885642913F04585752903
:1002200013F042856F2914F0DE81782913F0A3853D
:10023000E92914F07981E42914F07681F52914F084
:100240007381EF2914F0DB81F82913F0A28503688C
:10025000DB0928BF41F08001632914F0E88073298D
:1002600014F0ED80E32914F03384F32914F038847A
:10027000002070471FB514F089FC04000020002105
:1002800015F042F9401C60600020002115F026F9AD
:10029000E0601FBD10B510BD14F04AFC1146FFF719
:1002A000E9FF00F016FA14F027FD03B4FFF7F2FFA0
:1002B00003BC06F0FDFB0000F0B591B0054600263A
:1002C000294608A80BF0EAF9044640F2FF1007900F
:1002D0000020079909F025F9069004BB0698F0B1B3
:1002E0001BE0694608A80BF028FA044614B99DF8EB
:1002F000090000B912E00698007808B1069801E0FC
:100300000DF10900074638460CF000FC044604F0E5
:10031000F000502801D1701C86B2E2E700BF3046E1
:1003200011B0F0BD2DE9F04F95B0002003901AE018
:1003300000201021FEA20B46CDE900210290F02200
:10034000AA211E200DF08BF8C82006F07EFB4FF688
:10035000FF70BA23F022AA2100901E2003F042FE73
:10036000C82006F072FBF7A10CA80BF097F9002843
:10037000DED1F4A0FFF7A0FF07461AE0002010210D
:10038000F3A20B46CDE900210290F022AA211E2003
:100390000DF065F8C82006F058FB4FF6FF70BA2341
:1003A000F022AA2100901E2003F01CFEC82006F0B7
:1003B0004CFB002FE2D040F2FF100B9000200B9975
:1003C00009F0AFF80A9000200B9909F0AAF88046CE
:1003D0007900002009F0A5F806461AE00020102157
:1003E000DFA20B46CDE900210290F022AA211E20B7
:1003F0000DF035F8C82006F028FB4FF6FF70BA2341
:10040000F022AA2100901E2003F0ECFDC82006F087
:100410001CFB0A980028E1D0B8F1000FDED0002EB6
:10042000DCD0C8A10CA80BF039F904461CBB002590
:100430001FE0BDF836A004A90CA80BF07EF9044615
:1004400014B99DF8190000B914E00A98007808B1B1
:100450000A9801E00DF11900814648460CF056FB60
:10046000044604F0F000502803D126F815A0681CBB
:1004700085B2DEE700BF40F2DC5006F0E6FA0EF08F
:1004800019F80025AFA10CA80BF008F9044639E0D3
:1004900036F815100CA809F03DFC04A90CA80BF0C7
:1004A0004CF9044614B99DF8190000B92CE00A98DB
:1004B000007808B10A9801E00DF119008146ACA15D
:1004C000404613F03BFD4946404613F07AFD0020BC
:1004D00001F043FA0121A9484088CDE90001A7486D
:1004E00003880022114640460EF0AEF804464FF055
:1004F000000B05E0681C85B2BD4200DB002500E072
:10050000F8E700BF002CC3D000BF00200A9908F014
:10051000F8FF4146002008F0F4FF3146002008F0C3
:10052000F0FF15B0BDE8F08FF0B5C5B004460D463C
:1005300016461F464BA804904FF4807105A8049BF3
:100540004A9A13F03BFB00200490182105AABBB285
:10055000CDE900210290B2B2A9B2A0B20CF07FFFA7
:1005600045B0F0BD3EB504468548C088C82814DAB9
:10057000322006F06AFA8248C088C82821DA0020B2
:10058000182180A20B46CDE900210290C822014625
:1005900040F226200CF063FF13E0322006F055FAFB
:1005A0007748C088C8280CDD0020182178A20B46A7
:1005B000CDE900210290C822014640F226200CF02D
:1005C0004EFF6F488088C82814DA322006F03DFAC2
:1005D0006B488088C82821DA002018216FA20B46BA
:1005E000CDE900210290C822282140F226200CF0FB
:1005F00036FF13E0322006F028FA61488088DC28B4
:100600000CDD0020182168A20B46CDE900210290E4
:10061000C822282140F226200CF021FF58480088EB
:10062000C82814DA322006F010FA55480088DC2871
:1006300021DA002018215FA20B46CDE900210290AB
:10064000C822502140F226200CF009FF13E032208E
:1006500006F0FBF94A480088DC280CDD0020182150
:100660004BA20B46CDE900210290C822502140F256
:1006700026200CF0F4FE42484088DC2814DA3220B0
:1006800006F0E3F93E484088DC2821DA00201821F2
:100690004BA20B46CDE900210290C822782140F2FE
:1006A00026200CF0DCFE13E0322006F0CEF93448B0
:1006B0004088DC280CDD0020182135A20B46CDE94E
:1006C00000210290C822782140F226200CF0C7FEBB
:1006D0003EBD98B001261E2740F2D25440F2776505
:1006E000A0465022394904A813F0BCFC06F03BF99F
:1006F00006F06EF94FF4A06006F09AFA4FF4165027
:1007000006F0E4F906F070F806F0D1F8472144F657
:100710001F6005F0CFFF05F04FFF06F0D9F840F25B
:10072000D6612B4808F0D0FB4FF47A7052E00000FD
:1007300050494354555245CEC4BCFEBCD0B4EDCE56
:10074000F3210000303A2F504943545552450000E0
:10075000C3BBD3D0CDBCC6ACCEC4BCFE2100000010
:10076000C4DAB4E6B7D6C5E4CAA7B0DC21000000FD
:10077000303A2F504943545552452F009C030020D6
:1007800058030020D3D0BAA6C2FAD4D80000000083
:10079000787878787878787800000000BFC9BBD87E
:1007A000CAD5C2FAD4D80000787878787878787882
:1007B00078780000B3F8D3E0C2FAD4D80000000083
:1007C000C6E4CBFBC2FAD4D800000000345E0108B6
:1007D0000008004006F039F92146F74808F06EFBA2
:1007E000F64805F0C9FF12F07CFB06F060F801F056
:1007F000C9F803F035FF002008F0D1FD0CF040F9F6
:10080000EF4901220868EFA10AF0C9FAEC49012278
:100810004868EDA10AF0C3FA4FF47840EB4908802C
:1008200018E0EBA010210B46C822CDE900103221C0
:100830001E2003F032FEC82006F007F94FF6FF70C5
:100840004223F022322100901E2003F0CBFBC8206F
:1008500006F0FBF80CF0F7FC0028E2D11821DFA22B
:100860000B46CDE900210290C82232211E200CF057
:10087000F6FD4FF47A7006F0E8F8FFF753FDDBA0C1
:1008800013F0B6F94FF6FF704FF4F0734FF448725F
:1008900000210090084603F0A5FB00201821D4A2F7
:1008A0001E23CDE9002102904FF4FA7201460CF0AC
:1008B000D6FD0020D64908600021D64808F066F829
:1008C0000A2006F0C2F80121D24808F05FF800E3E0
:1008D000D148008800F4004000287CD000BFCF48F9
:1008E00090F80090B9F1410F09D0B9F1420F73D0DF
:1008F000B9F1430F71D0B9F1440F6FD1DFE105F0C9
:10090000CCFF07E0A1B2AC4808F0D8FA0A2006F004
:100910009CF80B34B4F51B6FF4DD4FF4967006F0C1
:1009200094F807E0A9B2A44808F0CEFA192006F01E
:100930008CF80B3D40F246508542F3DA4FF47A7062
:1009400006F083F807E0A9B29B4808F0BDFA012041
:1009500006F07BF80B3540F2D6608542F3DD40F2BD
:10096000D25084420DDC07E0A1B2934808F0A6FA09
:10097000012006F06AF80B3440F2D2508442F3DDD5
:1009800010E040F2DD5084420CDD07E0A1B28A485D
:1009900008F094FA012006F058F80B3C40F2D250CF
:1009A0008442F3DA04A89EA11E2340F22622CDE958
:1009B0000016029039460020FFF7B6FD701CC6B243
:1009C00007F11E0087B2B7F5E17F00DB1E2700208C
:1009D0009149088003E0F1E10EE0A6E0EDE105F0C9
:1009E00066FF95A013F004F90020894908604FF4D0
:1009F000165006F06BF8E0E105F04FFF07E0A1B2FA
:100A00006D4808F05BFA0A2006F01FF80B3CB4F5BD
:100A1000FA7FF4DA4FF4967006F017F807E0A9B2FF
:100A2000654808F051FA192006F00FF80B3DB5F5AE
:100A3000B96FF4DA4FF47A7006F007F805F01EFE8D
:100A40004FF4165006F042F805F0B0FE12F049FAE5
:100A500008E0A1B2794808F037FA052005F0F5FF63
:100A600008F1320840F2A4608045F2DB08E0A1B250
:100A7000724808F029FA052005F0E7FFA8F13208CE
:100A800040F2DC508045F2DC07E0A9B24A4808F0A9
:100A90001BFA012005F0D9FF0B3540F2D6608542E4
:100AA000F3DD40F2D25084420DDC07E0A1B24248AF
:100AB00008F004FA012005F0C8FF0B3440F2D250D0
:100AC0008442F3DD10E040F2DD5084420CDD07E0AB
:100AD000A1B2394808F0F2F9012005F0B6FF0B3C4D
:100AE00040F2D2508442F3DA09A855A11E2340F205
:100AF0002622CDE90016029039460020FFF714FDAA
:100B0000701CC6B207F11E0087B2B7F5E17F00DBAB
:100B10001E2700204049088005F0C9FE46A013F0BA
:100B200067F800203A49086047E105F0B6FE07E0A3
:100B3000A1B2214808F0C2F90A2005F086FF0B3463
:100B400040F21C708442F3DD062005F07EFF07E0D2
:100B5000A9B2194808F0B8F9192005F076FF0B3D45
:100B600040F246508542F3DA4FF47A7005F06DFF9B
:100B700007E0A9B2104808F0A7F9012005F065FFC9
:100B80000B3540F2D6608542F3DD40F2D25084420C
:100B90000DDC07E0A1B2084808F090F9012005F04B
:100BA00054FF0B3440F2D2508442F3DD60E040F257
:100BB000DD5084425CDD57E0000800400000B44294
:100BC00080000020303A0000313A0000140000207C
:100BD000466F6E74204572726F722100C0ACBBF814
:100BE000B7D6C0E0CAB5D1E9000000006F6B0000C5
:100BF000D0F2BAC52020C0ACBBF8D6D6C0E02020C9
:100C00002020CAFDC1BF2020D7B4CCAC000000001A
:100C10002C000020001000403C0000207016002036
:100C20002564202020202573202020202031202012
:100C3000202020206F6B210063630000000400402F
:100C400025642020202025732020203120202020F2
:100C500020206F6B21000000A1B29E4808F02EF901
:100C6000012005F0F2FE0B3C40F2D2508442F3DA50
:100C70000EA8AFF254011E2340F22622CDE9001641
:100C8000029039460020FFF74FFC701CC6B207F1F6
:100C90001E0087B2B7F5E17F00DB1E2700208E49DA
:100CA000088005F004FEAFF2700012F0A1FF0020F2
:100CB0008A4908604FF4165005F008FF7DE005F002
:100CC000ECFD07E0A1B2834808F0F8F80A2005F02F
:100CD000BCFE0B3CB4F5916FF4DA4FF4967005F05E
:100CE000B4FE07E0A9B27B4808F0EEF81E2005F03C
:100CF000ACFE0B3D40F25A508542F3DA4FF47A7065
:100D000005F0A3FE4FF47A7005F09FFE07E0A9B24C
:100D1000704808F0D9F8012005F097FE0B3540F235
:100D2000D6608542F3DD40F2D25084420DDC07E00C
:100D3000A1B2684808F0C2F8012005F086FE0B3425
:100D400040F2D2508442F3DD10E040F2DD508442A4
:100D50000CDD07E0A1B25F4808F0B0F8012005F013
:100D600074FE0B3C40F2D2508442F3DA13A8AFF287
:100D700050111E2340F22622CDE90016029039467A
:100D80000020FFF7D1FB701CC6B207F11E0087B22E
:100D9000B7F5E17F00DB1E2700204F49088005F0F2
:100DA00086FDAFF26C1012F023FF00204B49086063
:100DB0004FF4165005F08AFE00BF00BF0A2E06D180
:100DC0000021474807F0E2FD0020444908604348FD
:100DD0000068092876DB07E0A1B23E4808F06EF80B
:100DE0000A2005F032FE0B3CB4F5916FF4DA4FF4B3
:100DF000967005F02AFE07E0A9B2364808F064F8BC
:100E00001E2005F022FE0B3D40F25A508542F3DAD7
:100E10004FF47A7005F019FE4FF47A7005F015FE64
:100E200007E0A9B22B4808F04FF8012005F00DFEAD
:100E30000B3540F2D6608542F3DD40F2D250844259
:100E40000DDC07E0A1B2234808F038F8012005F0D6
:100E5000FCFD0B3440F2D2508442F3DD10E040F24E
:100E6000DD5084420CDD07E0A1B21A4808F026F8F4
:100E7000012005F0EAFD0B3C40F2D2508442F3DA47
:100E800013A8AFF264211E2340F22622CDE90016FA
:100E9000029039460020FFF747FB701CC6B207F1ED
:100EA0001E0087B2B7F5E17F00DB1E2700200A494C
:100EB000088005F0FCFC0020084908604FF416503B
:100EC00005F004FE12F00DF812F065F80548FFF782
:100ED00049FBFDE4000800403C0000202C000020FD
:100EE0000010004058030020704700BFFEE700BF1D
:100EF000FEE700BFFEE700BFFEE7704770477047A0
:100F0000704700000CB50020019000906C4800680C
:100F100040F480306A49086000BF6948006800F406
:100F2000003000900198401C0190009818B9019879
:100F3000B0F5A06FF1D16248006800F4003010B144
:100F40000120009001E0002000900098012843D18A
:100F50005C48006840F010005A4908600846006884
:100F600020F0030008600846006840F002000860B6
:100F700053484068524948600846406848600846FF
:100F8000406840F4806048600846406820F47C1067
:100F900048600846406840F4E81048600846006829
:100FA00040F08070086000BF4548006800F00070A5
:100FB0000028F9D04248406820F0030040494860CA
:100FC0000846406840F00200486000BF3C48406866
:100FD00000F00C000828F9D10CBD10B5FFF792FF06
:100FE00010BD10B53648006840F001003449086073
:100FF000084640683449084031494860084600685E
:10100000324908402E4908600846006820F48020D4
:1010100008600846406820F4FE0048604FF41F0056
:101020008860FFF7DAFF4FF000602949086010BDC3
:1010300010B5002100200022214B5B6803F00C0159
:1010400021B1042906D0082928D107E0214B224CE0
:10105000236027E01F4B204C236023E0184B5B6884
:1010600003F47010164B5B6803F48032022303EB29
:10107000904022B9194B4343174C23600DE0104BAD
:101080005B6803F4003323B1144B4343124C2360D9
:1010900003E0104B4343104C236003E00D4B0E4C18
:1010A000236000BF00BF064B5B68C3F303130C4C07
:1010B000E15C094B1B68CB40074C236010BD00006E
:1010C00000100240002002400000FFF8FFFFF6FE83
:1010D00008ED00E000127A000000002000093D0049
:1010E00004000020FE4908807047FD49891C0880E3
:1010F000704708B5FA48801C00880090BDF80000D1
:1011000008BDF74A1080921C1180704710B5044644
:101110002046FFF7E7FF052005F073FCFFF7E9FF26
:1011200010BDF0480089EE4908807047EC49891CE1
:101130000880704730B5014601F01F04C1F3451324
:10114000CA0AE50205EB43151544A8B230BD00BF3D
:10115000011EA0F10102D0B2FAD1704700B50246DB
:101160000B46E048808841F66311884247D1DD484C
:101170008079A8B9DB480088401E801A82B2D9491C
:101180004889FFF7AFFF0020FFF7AFFF0020FFF710
:10119000ACFF1012FFF7A9FFD0B2FFF7A6FF16E0D1
:1011A000D0494889FFF79EFF1012FFF79EFFD0B28B
:1011B000FFF79BFFCB490988491EC1F30F20FFF7BA
:1011C00094FFC8490978491EC8B2FFF78EFFC54988
:1011D0008889FFF787FF1812FFF787FFD8B2FFF75C
:1011E00084FFC0494988491EC1F30F20FFF77DFFE6
:1011F000BC498978491EC8B2FFF777FF3AE0B94881
:10120000808845F21051884220D1B6494889FFF7BD
:1012100069FF1012FFF769FFB2494989491C88B27A
:10122000FFF760FFD0B2FFF760FFAE498889FFF794
:1012300059FF1812FFF759FFAA498989491C88B23A
:10124000FFF750FFD8B2FFF750FF13E0A5494889D8
:10125000FFF748FF1012FFF748FFD0B2FFF745FF36
:10126000A0498889FFF73EFF1812FFF73EFFD8B26A
:10127000FFF73BFF00BD2DE9F04105460E469948BA
:101280000088A84203DD97484088B04202DC002075
:10129000BDE8F08131462846FFF760FF914880881D
:1012A00045F21051884204D14FF43850FFF71AFF2D
:1012B00002E02E20FFF716FFFFF71BFF04468948C8
:1012C000808841F66311884201D12046E0E7FFF7AC
:1012D00010FF0446FFF70DFF8046E7B24FF6FF70A0
:1012E00000EA0727E012C002B91240EA411040EAC2
:1012F000E820CDE700B57B48808845F21051884250
:1013000004D14FF42450FFF7EDFE02E02920FFF74F
:10131000E9FE00BD00B57348808845F2105188424F
:1013200004D14FF42050FFF7DDFE02E02820FFF744
:10133000D9FE00BD70B504460023002669488079B7
:10134000012805D16748808841F66311884208D199
:1013500064488079F0B96348808841F66311884217
:1013600018D1082C15D2DFE804F00406080A0C0E88
:10137000101206240DE007240BE0042409E00524E4
:1013800007E0012405E0002403E0032401E0022437
:1013900000BF00BF082C1CD2DFE804F00406090CD3
:1013A0000F12151800BF14E043F0800311E043F062
:1013B00040030EE043F0C0030BE043F0200308E0DD
:1013C00043F0600305E043F0A00302E043F0E003D4
:1013D00000BF00BF4348808845F21051884202D1C7
:1013E0004FF4585600E036263E48808849F2413195
:1013F000884205D03B48808847F28971884201D1F4
:1014000043F0080319463046FFF77BFE35488088D5
:1014100041F6631188421DD003F0200068B13148C5
:10142000008830494988884214DA2E480588408867
:101430002C490880084645800CE02A480088294944
:101440004988884206DD2748058840882549088064
:10145000084645802348808845F21051884257D17C
:1014600020494889FFF73EFE0020FFF73EFE1D4958
:101470004989491C88B2FFF735FE0020FFF735FE89
:1014800018494989891C88B2FFF72CFE154909883B
:10149000491EC1F30F20FFF728FE12494989C91CD4
:1014A00088B2FFF71FFE0F490978491EC8B2FFF73F
:1014B0001CFE0C498889FFF715FE0020FFF715FE7A
:1014C00008498989491C88B2FFF70CFE0020FFF704
:1014D0000CFE04498989891C88B2FFF703FE03E0EA
:1014E000FE07006C9C030020FE494988491EC1F399
:1014F0000F20FFF7FAFDFB498989C91C88B2FFF765
:10150000F1FDF8498978491EC8B2FFF7EEFD2DE0DC
:10151000F4494889FFF7E6FD0020FFF7E6FD0020CB
:10152000FFF7E3FDEF490988491EC1F30F20FFF7DC
:10153000DCFDEC490978491EC8B2FFF7D6FDE94940
:101540008889FFF7CFFD0020FFF7CFFD0020FFF7D0
:10155000CCFDE4494988491EC1F30F20FFF7C5FDC2
:10156000E0498978491EC8B2FFF7BFFD70BD30B5AC
:1015700004460D4629462046FFF7F0FDFFF7D1FD52
:10158000D9480088D949088030BD10B503460C46BB
:10159000D448808845F21051884220D1D1494889E9
:1015A000FFF7A0FD1812FFF7A0FDCE494989491C9D
:1015B00088B2FFF797FDD8B2FFF797FDC949888930
:1015C000FFF790FD2012FFF790FDC6498989491C5D
:1015D00088B2FFF787FDE0B2FFF787FD42E0C14820
:1015E000808841F66311884228D1BE48807920B9AD
:1015F000BC480088401EC01A83B2BA494889FFF728
:1016000071FD1812FFF771FDD8B2FFF76EFD1812C9
:10161000FFF76BFDD8B2FFF768FDB2498889FFF785
:1016200061FD2012FFF761FDE0B2FFF75EFD2012C1
:10163000FFF75BFDE0B2FFF758FD13E0A9494889C9
:10164000FFF750FD1812FFF750FDD8B2FFF74DFD20
:10165000A4498889FFF746FD2012FFF746FDE0B256
:10166000FFF743FD9F480089A049891E0880881C18
:10167000028010BD2DE9F0470446BE20FFF732FD81
:101680000520FFF732FD204613F081FF07464FF09B
:101690006632974B13F08EFF054613F04BFF1FFA8F
:1016A00080F94846FFF721FD0120FFF71EFDFF20CE
:1016B000FFF71BFD0020FFF718FD0020FFF715FDC9
:1016C000BDE8F08710B5044686488471002C45D1EA
:1016D000F020844908804FF4A07048800846808834
:1016E00045F21051884210D14FF430507D490881A5
:1016F0004FF4285048814FF42C5088814FF4F070FB
:1017000008804FF4487048801AE07648808841F697
:10171000631188420DD12C20724908812B20488109
:101720002A2088814FF4F07008804FF44870488078
:1017300006E02C206B4908812A2048812B208881D3
:101740006848808845F2103188424CD14FF4A0702F
:10175000644908804FF4F070488044E04FF4A07072
:1017600060490880F02048800846808845F2105182
:10177000884210D14FF430505A4908814FF4285014
:1017800048814FF42C5088814FF4487008804FF402
:10179000F07048801AE05348808841F6631188420F
:1017A0000DD12C204F4908812A2048812B20888187
:1017B0004FF4487008804FF4F070488006E02C2009
:1017C000484908812A2048812B2088814548808803
:1017D00045F21031884206D14FF4F070414908803B
:1017E0004FF4A07048800020FFF7A4FD10BDF0B5B5
:1017F00004460D46A018401E86B2E818401E87B267
:101800003848808841F66311884231D13548807963
:1018100001282DD033480088801A001B84B2E818B4
:10182000401E83B22F494889FFF75CFC2012FFF766
:101830005CFCE0B2FFF759FCA118491EC1F30F2070
:10184000FFF753FCA118491EC8B2FFF74EFC25490B
:101850008889FFF747FC2812FFF747FCE8B2FFF73B
:1018600044FC1812FFF741FCD8B2FFF73EFC73E0CE
:101870001C48808845F2105188424DD11949488949
:10188000FFF730FC2012FFF730FC16494989491C4C
:1018900088B2FFF727FCE0B2FFF727FC114949891E
:1018A000891C88B2FFF71EFC3012FFF71EFC0D49A1
:1018B0004989C91C88B2FFF715FCF0B2FFF715FC87
:1018C00008498889FFF70EFC2812FFF70EFC05492E
:1018D0008989491C88B2FFF705FCE8B2FFF705FCCF
:1018E000004907E09C030020140000200008006C61
:1018F000666604408989891C88B2FFF7F3FB3812B9
:10190000FFF7F3FBFE498989C91C88B2FFF7EAFBA0
:10191000F8B2FFF7EAFB1FE0F9494889FFF7E2FB5D
:101920002012FFF7E2FBE0B2FFF7DFFB3012FFF718
:10193000DCFBF0B2FFF7D9FBF1498889FFF7D2FB56
:101940002812FFF7D2FBE8B2FFF7CFFB3812FFF700
:10195000CCFBF8B2FFF7C9FBF0BD70B5044600261A
:10196000E74805884088454300210846FFF7F6FB15
:10197000FFF7D7FB00BF02E0E2480480761CAE42CE
:10198000FAD370BD00B59FB00121080205F0D3FF66
:1019900001214FF4B47005F0DBFF0120ADF87800B1
:1019A00010208DF87B0003208DF87A001EA9D64800
:1019B00005F012FD4CF23370ADF8780018208DF868
:1019C0007B0003208DF87A001EA9D04805F004FDA5
:1019D0004FF68070ADF8780018208DF87B0003205A
:1019E0008DF87A001EA9CA4805F0F6FC41F2010004
:1019F000ADF8780018208DF87B0003208DF87A0070
:101A00001EA9C44805F0E8FC0120089000200990B8
:101A10000F200A9000200B900C900D900E900190DA
:101A200002900320039000200490059006900790F8
:101A300006200F900020109011901020129000208E
:101A4000139015901490169017904FF480501890A2
:101A5000002019904FF480401A9000201B9008A895
:101A60001C9001A81D900FA805F09CF901210620EB
:101A700005F000FB322004F0E8FFD320FFF732FB33
:101A8000FFF737FB9E498880FFF733FB9C4988802E
:101A9000FFF72FFB9A498880084680884FF6FF7130
:101AA00001EA002096498880FFF723FB9449898842
:101AB0000843934988800846808849F2413188422A
:101AC0007DD00420FFF70EFBFFF713FB8C498880C5
:101AD000FFF70FFB8A498880FFF70BFB8849888056
:101AE000084680884FF6FF7101EA0020844988800B
:101AF000FFF7FFFA824989880843814988800846B0
:101B0000808848F25251884203D147F289707C495B
:101B100088807B48808847F289718842D0D0D42061
:101B2000FFF7E0FAFFF7E5FA75498880FFF7E1FA79
:101B300073498880FFF7DDFA7149888008468088FC
:101B40004FF6FF7101EA00206D498880FFF7D1FA56
:101B50006B49898808436A4988800846808845F22D
:101B60001031884262D055214FF47040FFF7C9FA16
:101B7000AA214FF20100FFF7C4FA52214FF20200EE
:101B8000FFF7BFFA08214FF20300FFF7BAFA01216D
:101B90004FF20400FFF7B5FA4FF44540FFF7A2FA01
:101BA000FFF7A7FA56498880084680884FF6FF71EC
:101BB00001EA0020524988804CF2015000E035E0F3
:101BC000FFF790FAFFF795FA4D49898808434C4989
:101BD0008880052004F039FF4948808845F210517B
:101BE000884223D0A120FFF77DFAFFF782FA44490B
:101BF0008880FFF77EFA42498880084680884FF641
:101C0000FF7101EA00203E498880FFF772FA3C49E3
:101C1000898808433A4988800846808845F261717E
:101C2000884203D141F66310354988803448808862
:101C300049F2413188426FD1CF20FFF753FA00209B
:101C4000FFF753FAC120FFF750FA3020FFF74DFAA3
:101C5000ED20FFF747FA6420FFF747FA0320FFF76C
:101C600044FA1220FFF741FA8120FFF73EFAE820FC
:101C7000FFF738FA8520FFF738FA1020FFF735FA1A
:101C80007A20FFF732FACB20FFF72CFA3920FFF742
:101C90002CFA2C20FFF729FA0020FFF726FA34202F
:101CA000FFF723FA0220FFF720FAF720FFF71AFACE
:101CB0002020FFF71AFAEA20FFF714FA0020FFF7B6
:101CC00014FA0020FFF711FAC020FFF70BFA1B20CF
:101CD000FFF70BFAC120FFF705FA0120FFF705FA1D
:101CE000C520FFF7FFF93020FFF7FFF93020FFF79D
:101CF000FCF9C720FFF7F6F9B720FFF7F6F90CE07B
:101D00009C0300200008006C000C014000140140FE
:101D10000018014000200140B2E03620FFF7E2F950
:101D20004820FFF7E2F93A20FFF7DCF95520FFF7EA
:101D3000DCF9B120FFF7D6F90020FFF7D6F91A2019
:101D4000FFF7D3F9B620FFF7CDF90A20FFF7CDF959
:101D5000A220FFF7CAF9F220FFF7C4F90020FFF72D
:101D6000C4F92620FFF7BEF90120FFF7BEF9E020F5
:101D7000FFF7B8F90F20FFF7B8F92A20FFF7B5F9F8
:101D80002820FFF7B2F90820FFF7AFF90E20FFF780
:101D9000ACF90820FFF7A9F95420FFF7A6F9A9200C
:101DA000FFF7A3F94320FFF7A0F90A20FFF79DF9F9
:101DB0000F20FFF79AF90020FFF797F90020FFF7AF
:101DC00094F90020FFF791F90020FFF78EF9E12048
:101DD000FFF788F90020FFF788F91520FFF785F94C
:101DE0001720FFF782F90720FFF77FF91120FFF78F
:101DF0007CF90620FFF779F92B20FFF776F95620BA
:101E0000FFF773F93C20FFF770F90520FFF76DF934
:101E10001020FFF76AF90F20FFF767F93F20FFF75F
:101E200064F93F20FFF761F90F20FFF75EF92B20DF
:101E3000FFF758F90020FFF758F90020FFF755F990
:101E40000120FFF752F93F20FFF74FF92A20FFF753
:101E500049F90020FFF749F90020FFF746F9002073
:101E6000FFF743F9EF20FFF740F91120FFF73AF9A8
:101E7000782004F0EAFD2920FFF734F902F0A6B833
:101E8000FE48808847F2897188427CD11120FFF793
:101E900029F9782004F0D9FD3620FFF723F9002036
:101EA000FFF723F93A20FFF71DF90520FFF71DF989
:101EB000B220FFF717F90C20FFF717F90C20FFF7F6
:101EC00014F90020FFF711F93320FFF70EF9332042
:101ED000FFF70BF9B720FFF705F93520FFF705F9F4
:101EE000BB20FFF7FFF83220FFF7FFF8C020FFF715
:101EF000F9F80C20FFF7F9F8C220FFF7F3F80120FA
:101F0000FFF7F3F8C320FFF7EDF81020FFF7EDF827
:101F1000C420FFF7E7F82020FFF7E7F8C620FFF717
:101F2000E1F80F20FFF7E1F8D020FFF7DBF8A4205D
:101F3000FFF7DBF8A120FFF7D8F8E020FFF7D2F891
:101F4000D020FFF7D2F80020FFF7CFF80220FFF7EC
:101F5000CCF80720FFF7C9F80A20FFF7C6F82820B9
:101F6000FFF7C3F83220FFF7C0F84420FFF7BDF8B1
:101F70004220FFF7BAF80620FFF7B7F80E20FFF768
:101F8000B4F8122000E056E0FFF7AFF81420FFF796
:101F9000ACF81720FFF7A9F8E120FFF7A3F8D0204D
:101FA000FFF7A3F80020FFF7A0F80220FFF79DF845
:101FB0000720FFF79AF80A20FFF797F82820FFF785
:101FC00094F83120FFF791F85420FFF78EF847205E
:101FD000FFF78BF80E20FFF788F81C20FFF785F835
:101FE0001720FFF782F81B20FFF77FF81E20FFF76E
:101FF0007CF82A20FFF776F80020FFF776F800201B
:10200000FFF773F80020FFF770F8EF20FFF76DF887
:102010002B20FFF767F80020FFF767F80020FFF795
:1020200064F80120FFF761F83F20FFF75EF82920F0
:10203000FFF758F822E79148808845F2103188422E
:1020400040F07C87ED20FFF74DF80120FFF74DF8B9
:10205000FE20FFF74AF8EE20FFF744F8DE20FFF7F6
:1020600044F82120FFF741F8F120FFF73BF8012069
:10207000FFF73BF8DF20FFF735F81020FFF735F8C2
:10208000C420FFF72FF88F20FFF72FF8C620FFF7A7
:1020900029F80020FFF729F8E220FFF726F8E220D0
:1020A000FFF723F8E220FFF720F8BF20FFF71AF828
:1020B000AA20FFF71AF8B020FFF714F80D20FFF759
:1020C00014F80020FFF711F80D20FFF70EF800209C
:1020D000FFF70BF81120FFF708F80020FFF705F8CD
:1020E0001920FFF702F80020FEF7FFFF2120FEF77E
:1020F000FCFF0020FEF7F9FF2D20FEF7F6FF002081
:10210000FEF7F3FF3D20FEF7F0FF0020FEF7EDFFA6
:102110005D20FEF7EAFF0020FEF7E7FF5D20FEF7F7
:10212000E4FF0020FEF7E1FFB120FEF7DBFF802097
:10213000FEF7DBFF0020FEF7D8FF8B20FEF7D5FF70
:102140000020FEF7D2FF9620FEF7CFFF0020FEF71B
:10215000CCFFB220FEF7C6FF0020FEF7C6FF00202E
:10216000FEF7C3FF0220FEF7C0FF0020FEF7BDFF11
:102170000320FEF7BAFF0020FEF7B7FFB320FEF7FB
:10218000B1FF0020FEF7B1FF0020FEF7AEFF0020F8
:10219000FEF7ABFF0020FEF7A8FF0020FEF7A5FF2B
:1021A0000020FEF7A2FF0020FEF79FFF0020FEF7B1
:1021B0009CFF0020FEF799FF0020FEF796FF00200D
:1021C000FEF793FF0020FEF790FF0020FEF78DFF43
:1021D0000020FEF78AFF0020FEF787FF0020FEF7B1
:1021E00084FF0020FEF781FF0020FEF77EFF002025
:1021F000FEF77BFF0020FEF778FF0020FEF775FF5B
:102200000020FEF772FF0020FEF76FFF0020FEF7B0
:102210006CFFB420FEF766FF8B20FEF766FF002000
:10222000FEF763FF9620FEF760FF0020FEF75DFFDC
:10223000A120FEF75AFF0020FEF757FFB520FEF75A
:1022400051FF0220FEF751FF0020FEF74EFF032052
:10225000FEF74BFF0020FEF748FF0420FEF745FF86
:102260000020FEF742FFB620FEF73CFF0020FEF7FD
:102270003CFF0020FEF739FFB72001E09C0300205F
:10228000FEF730FF0020FEF730FF0020FEF72DFFA5
:102290003F20FEF72AFF0020FEF727FF5E20FEF713
:1022A00024FF0020FEF721FF6420FEF71EFF002020
:1022B000FEF71BFF8C20FEF718FF0020FEF715FF2E
:1022C000AC20FEF712FF0020FEF70FFFDC20FEF728
:1022D0000CFF0020FEF709FF7020FEF706FF00202C
:1022E000FEF703FF9020FEF700FF0020FEF7FDFE43
:1022F000EB20FEF7FAFE0020FEF7F7FEDC20FEF7EB
:10230000F4FE0020FEF7F1FEB820FEF7EBFE002001
:10231000FEF7EBFE0020FEF7E8FE0020FEF7E5FEEC
:102320000020FEF7E2FE0020FEF7DFFE0020FEF7B1
:10233000DCFE0020FEF7D9FE0020FEF7D6FEBA2014
:10234000FEF7D0FE2420FEF7D0FE0020FEF7CDFEE3
:102350000020FEF7CAFE0020FEF7C7FEC120FEF7F0
:10236000C1FE2020FEF7C1FE0020FEF7BEFE542075
:10237000FEF7BBFE0020FEF7B8FEFF20FEF7B5FE1D
:102380000020FEF7B2FEC220FEF7ACFE0A20FEF7E8
:10239000ACFE0020FEF7A9FE0420FEF7A6FE0020FA
:1023A000FEF7A3FEC320FEF79DFE3C20FEF79DFE38
:1023B0000020FEF79AFE3A20FEF797FE0020FEF777
:1023C00094FE3920FEF791FE0020FEF78EFE3720A6
:1023D000FEF78BFE0020FEF788FE3C20FEF785FE10
:1023E0000020FEF782FE3620FEF77FFE0020FEF77B
:1023F0007CFE3220FEF779FE0020FEF776FE2F20CD
:10240000FEF773FE0020FEF770FE2C20FEF76DFE37
:102410000020FEF76AFE2920FEF767FE0020FEF787
:1024200064FE2620FEF761FE0020FEF75EFE2420FB
:10243000FEF75BFE0020FEF758FE2420FEF755FE57
:102440000020FEF752FE2320FEF74FFE0020FEF78D
:102450004CFE3C20FEF749FE0020FEF746FE3620EB
:10246000FEF743FE0020FEF740FE3220FEF73DFE61
:102470000020FEF73AFE2F20FEF737FE0020FEF781
:1024800034FE2C20FEF731FE0020FEF72EFE292020
:10249000FEF72BFE0020FEF728FE2620FEF725FE85
:1024A0000020FEF722FE2420FEF71FFE0020FEF78C
:1024B0001CFE2420FEF719FE0020FEF716FE232046
:1024C000FEF713FE0020FEF710FEC420FEF70AFE02
:1024D0006220FEF70AFE0020FEF707FE0520FEF749
:1024E00004FE0020FEF701FE8420FEF7FEFD002022
:1024F000FEF7FBFDF020FEF7F8FD0020FEF7F5FDEE
:102500001820FEF7F2FD0020FEF7EFFDA420FEF7F5
:10251000ECFD0020FEF7E9FD1820FEF7E6FD0020A7
:10252000FEF7E3FD5020FEF7E0FD0020FEF7DDFDA5
:102530000C20FEF7DAFD0020FEF7D7FD1720FEF78E
:10254000D4FD0020FEF7D1FD9520FEF7CEFD002042
:10255000FEF7CBFDF320FEF7C8FD0020FEF7C5FD1A
:10256000E620FEF7C2FD0020FEF7BFFDC520FEF706
:10257000B9FD3220FEF7B9FD0020FEF7B6FD44207C
:10258000FEF7B3FD0020FEF7B0FD6520FEF7ADFDC0
:102590000020FEF7AAFD7620FEF7A7FD0020FEF73B
:1025A000A4FD8820FEF7A1FD0020FEF79EFDC620B9
:1025B000FEF798FD2020FEF798FD0020FEF795FD20
:1025C0001720FEF792FD0020FEF78FFD0120FEF799
:1025D0008CFD0020FEF789FDC720FEF783FD00205B
:1025E000FEF783FD0020FEF780FD0020FEF77DFD55
:1025F0000020FEF77AFDC820FEF774FD0020FEF7EC
:1026000074FD0020FEF771FD0020FEF76EFD002036
:10261000FEF76BFDC920FEF765FD0020FEF765FDA6
:102620000020FEF762FD0020FEF75FFD0020FEF7B0
:102630005CFD0020FEF759FD0020FEF756FD00204E
:10264000FEF753FD0020FEF750FD0020FEF74DFD84
:102650000020FEF74AFD0020FEF747FD0020FEF7B0
:1026600044FD0020FEF741FD0020FEF73EFD002066
:10267000FEF73BFD0020FEF738FDE020FEF732FDBF
:102680001620FEF732FD0020FEF72FFD1C20FEF77E
:102690002CFD0020FEF729FD2120FEF726FD00205D
:1026A000FEF723FD3620FEF720FD0020FEF71DFD7E
:1026B0004620FEF71AFD0020FEF717FD5220FEF718
:1026C00014FD0020FEF711FD6420FEF70EFD002032
:1026D000FEF70BFD7A20FEF708FD0020FEF705FD52
:1026E0008B20FEF702FD0020FEF7FFFC9920FEF78D
:1026F000FCFC0020FEF7F9FCA820FEF7F6FC002009
:10270000FEF7F3FCB920FEF7F0FC0020FEF7EDFC2D
:10271000C420FEF7EAFC0020FEF7E7FCCA20FEF723
:10272000E4FC0020FEF7E1FCD220FEF7DEFC0020F6
:10273000FEF7DBFCD920FEF7D8FC0020FEF7D5FC25
:10274000E020FEF7D2FC0020FEF7CFFCF320FEF7DE
:10275000CCFC0020FEF7C9FCE120FEF7C3FC1620EC
:10276000FEF7C3FC0020FEF7C0FC1C20FEF7BDFCFA
:102770000020FEF7BAFC2220FEF7B7FC0020FEF78F
:10278000B4FC3620FEF7B1FC0020FEF7AEFC45207D
:10279000FEF7ABFC0020FEF7A8FC5220FEF7A5FCDC
:1027A0000020FEF7A2FC6420FEF79FFC0020FEF74D
:1027B0009CFC7A20FEF799FC0020FEF796FC8B200B
:1027C000FEF793FC0020FEF790FC9920FEF78DFCAD
:1027D0000020FEF78AFCA820FEF787FC0020FEF709
:1027E00084FCB920FEF781FC0020FEF77EFCC420AB
:1027F000FEF77BFC0020FEF778FCCA20FEF775FC94
:102800000020FEF772FCD220FEF76FFC0020FEF7DE
:102810006CFCD820FEF769FC0020FEF766FCE02087
:10282000FEF763FC0020FEF760FCF320FEF75DFC82
:102830000020FEF75AFCE220FEF754FC0520FEF7CC
:1028400054FC0020FEF751FC0B20FEF74EFC00204C
:10285000FEF74BFC1B20FEF748FC0020FEF745FC72
:102860003420FEF742FC0020FEF73FFC4420FEF738
:102870003CFC0020FEF739FC4F20FEF736FC002020
:10288000FEF733FC6120FEF730FC0020FEF72DFC44
:102890007920FEF72AFC0020FEF727FC8820FEF7AF
:1028A00024FC0020FEF721FC9720FEF71EFC0020F0
:1028B000FEF71BFCA620FEF718FC0020FEF715FC17
:1028C000B720FEF712FC0020FEF70FFCC220FEF737
:1028D0000CFC0020FEF709FCC720FEF706FC0020D8
:1028E000FEF703FCD120FEF700FC0020FEF7FDFB05
:1028F000D620FEF7FAFB0020FEF7F7FBDD20FEF7FF
:10290000F4FB0020FEF7F1FBF320FEF7EEFB0020C6
:10291000FEF7EBFBE320FEF7E5FB0520FEF7E5FB0A
:102920000020FEF7E2FB0A20FEF7DFFB0020FEF7A7
:10293000DCFB1C20FEF7D9FB0020FEF7D6FB332082
:10294000FEF7D3FB0020FEF7D0FB4420FEF7CDFBC3
:102950000020FEF7CAFB5020FEF7C7FB0020FEF761
:10296000C4FB6220FEF7C1FB0020FEF7BEFB78200F
:10297000FEF7BBFB0020FEF7B8FB8820FEF7B5FB97
:102980000020FEF7B2FB9720FEF7AFFB0020FEF71A
:10299000ACFBA620FEF7A9FB0020FEF7A6FBB720A4
:1029A000FEF7A3FB0020FEF7A0FBC220FEF79DFB75
:1029B0000020FEF79AFBC720FEF797FB0020FEF7EA
:1029C00094FBD120FEF791FB0020FEF78EFBD52073
:1029D000FEF78BFB0020FEF788FBDD20FEF785FB72
:1029E0000020FEF782FBF320FEF77FFB0020FEF7BE
:1029F0007CFBE420FEF776FB0120FEF776FB00204F
:102A0000FEF773FB0120FEF770FB0020FEF76DFB65
:102A10000220FEF76AFB0020FEF767FB2A20FEF784
:102A200064FB0020FEF761FB3C20FEF75EFB00200C
:102A3000FEF75BFB4B20FEF758FB0020FEF755FB33
:102A40005D20FEF752FB0020FEF74FFB7420FEF7DF
:102A50004CFB0020FEF749FB8420FEF746FB0020DC
:102A6000FEF743FB9320FEF740FB0020FEF73DFB03
:102A7000A220FEF73AFB0020FEF737FBB320FEF75B
:102A800034FB0020FEF731FBBE20FEF72EFB0020BA
:102A9000FEF72BFBC420FEF728FB0020FEF725FBEA
:102AA000CD20FEF722FB0020FEF71FFBD320FEF710
:102AB0001CFB0020FEF719FBDD20FEF716FB0020B3
:102AC000FEF713FBF320FEF710FB0020FEF70DFBD3
:102AD000E520FEF707FB0020FEF707FB0020FEF7CE
:102AE00004FB0020FEF701FB0020FEF7FEFA0220A7
:102AF000FEF7FBFA0020FEF7F8FA2920FEF7F5FAB8
:102B00000020FEF7F2FA3C20FEF7EFFA0020FEF775
:102B1000ECFA4B20FEF7E9FA0020FEF7E6FA5D201A
:102B2000FEF7E3FA0020FEF7E0FA7420FEF7DDFA84
:102B30000020FEF7DAFA8420FEF7D7FA0020FEF72D
:102B4000D4FA9320FEF7D1FA0020FEF7CEFAA220A5
:102B5000FEF7CBFA0020FEF7C8FAB320FEF7C5FA5D
:102B60000020FEF7C2FABE20FEF7BFFA0020FEF7F3
:102B7000BCFAC420FEF7B9FA0020FEF7B6FACD2061
:102B8000FEF7B3FA0020FEF7B0FAD320FEF7ADFA55
:102B90000020FEF7AAFADC20FEF7A7FA0020FEF7D5
:102BA000A4FAF320FEF7A1FA0020FEF79EFAE62031
:102BB000FEF798FA1120FEF798FA0020FEF795FA32
:102BC0003420FEF792FA0020FEF78FFA5620FEF727
:102BD0008CFA0020FEF789FA7620FEF786FA0020AC
:102BE000FEF783FA7720FEF780FA0020FEF77DFAE1
:102BF0006620FEF77AFA0020FEF777FA8820FEF7C3
:102C000074FA0020FEF771FA9920FEF76EFA0020A0
:102C1000FEF76BFABB20FEF768FA0020FEF765FAB4
:102C20009920FEF762FA0020FEF75FFA6620FEF7B1
:102C30005CFA0020FEF759FA5520FEF756FA0020FC
:102C4000FEF753FA5520FEF750FA0020FEF74DFA32
:102C50004520FEF74AFA0020FEF747FA4320FEF728
:102C600044FA0020FEF741FA4420FEF73EFA002025
:102C7000FEF73BFAE720FEF735FA3220FEF735FA89
:102C80000020FEF732FA5520FEF72FFA0020FEF75B
:102C90002CFA7620FEF729FA0020FEF726FA6620A5
:102CA000FEF723FA0020FEF720FA6720FEF71DFA50
:102CB0000020FEF71AFA6720FEF717FA0020FEF749
:102CC00014FA8720FEF711FA0020FEF70EFA992079
:102CD000FEF70BFA0020FEF708FABB20FEF705FA14
:102CE0000020FEF702FA9920FEF7FFF90020FEF718
:102CF000FCF97720FEF7F9F90020FEF7F6F94420F9
:102D0000FEF7F3F90020FEF7F0F95620FEF7EDF993
:102D10000020FEF7EAF92320FEF7E7F90020FEF78E
:102D2000E4F93320FEF7E1F90020FEF7DEF9452053
:102D3000FEF7DBF90020FEF7D8F9E820FEF7D2F91C
:102D40000020FEF7D2F90020FEF7CFF99920FEF718
:102D5000CCF90020FEF7C9F98720FEF7C6F900205C
:102D6000FEF7C3F98820FEF7C0F90020FEF7BDF991
:102D70007720FEF7BAF90020FEF7B7F96620FEF7D4
:102D8000B4F90020FEF7B1F98820FEF7AEF9002073
:102D9000FEF7ABF9AA20FEF7A8F90020FEF7A5F987
:102DA000BB20FEF7A2F90020FEF79FF99920FEF75D
:102DB0009CF90020FEF799F96620FEF796F90020AD
:102DC000FEF793F95520FEF790F90020FEF78DF9F4
:102DD0005520FEF78AF90020FEF787F94420FEF718
:102DE00084F90020FEF781F94420FEF77EF90020E7
:102DF000FEF77BF95520FEF778F90020FEF775F90C
:102E0000E920FEF76FF9AA20FEF76FF90020FEF720
:102E10006CF90020FEF769F90020FEF766F9002042
:102E2000FEF760F9AA20FEF760F9CF20FEF75AF905
:102E30000020FEF75AF90020FEF757F90020FEF7B0
:102E400054F90020FEF751F90020FEF74EF900205A
:102E5000FEF74BF90020FEF748F90020FEF745F990
:102E60000020FEF742F90020FEF73FF90020FEF7B0
:102E70003CF90020FEF739F90020FEF736F9002072
:102E8000FEF733F90020FEF730F90020FEF72DF9A8
:102E90000020FEF72AF9F020FEF724F90020FEF7C3
:102EA00024F95020FEF721F90020FEF71EF900203A
:102EB000FEF71BF90020FEF718F9F320FEF712F9D0
:102EC0000020FEF712F9F920FEF70CF90620FEF7B4
:102ED0000CF91020FEF709F92920FEF706F9002069
:102EE000FEF703F93A20FEF7FDF85520FEF7FDF84E
:102EF0001120FEF7F7F8642003F0A7FD2920FEF764
:102F0000F1F83520FEF7EEF80020FEF7EEF851203C
:102F1000FEF7E8F8FF20FEF7E8F85320FEF7E2F8A6
:102F20002C20FEF7E2F85520FEF7DCF88220FEF7B1
:102F3000DCF82C20FEF7D6F801F048B8FE4880886F
:102F400045F2105188427DD155214FF47040FEF773
:102F5000D8F8AA214FF20100FEF7D3F852214FF220
:102F60000200FEF7CEF808214FF20300FEF7C9F881
:102F700001214FF20400FEF7C4F80D214FF4304058
:102F8000FEF7BFF80D214BF20100FEF7BAF80D2154
:102F90004BF20200FEF7B5F834214FF43640FEF74D
:102FA000B0F834214BF20160FEF7ABF834214BF25C
:102FB0000260FEF7A6F80D214FF43140FEF7A1F8AC
:102FC0000D214BF20110FEF79CF80D214BF202107F
:102FD000FEF797F834214FF43740FEF792F834218A
:102FE0004BF20170FEF78DF834214BF20270FEF7C0
:102FF00088F800214FF43240FEF783F800214BF2AD
:103000000120FEF77EF800214BF20220FEF779F84E
:1030100024214FF43840FEF774F824214BF60100C8
:10302000FEF76FF824214BF60200FEF76AF8012143
:103030004FF43F40FEF765F80F214FF43340FEF7A1
:1030400060F800E0FDE30F214BF20130FEF759F884
:103050000F214BF20230FEF754F834214FF439407F
:10306000FEF74FF834214BF60110FEF74AF83421F1
:103070004BF60210FEF745F808214FF43540FEF7F5
:1030800040F808214BF20150FEF73BF808214BF2C3
:103090000250FEF736F803214FF44240FEF731F8B4
:1030A00024214FF43A40FEF72CF824214BF601205E
:1030B000FEF727F824214BF60220FEF722F8002124
:1030C0004FF43C40FEF71DF878214BF60140FEF727
:1030D00018F800214BF60240FEF713F800214FF4D8
:1030E0003D40FEF70EF878214BF60150FEF709F847
:1030F00000214BF60250FEF704F800214FF43E4049
:10310000FDF7FFFF64214BF60160FDF7FAFF002198
:103110004FF45140FDF7F5FF33214DF20110FDF75B
:10312000F0FF00214DF20210FDF7EBFF34214DF2CC
:103130000310FDF7E6FF00214DF20410FDF7E1FF5B
:103140003A214DF20510FDF7DCFF00214DF206108B
:10315000FDF7D7FF4A214DF20710FDF7D2FF0021FE
:103160004DF20810FDF7CDFF5C214DF20910FDF77F
:10317000C8FF00214DF20A10FDF7C3FF81214DF277
:103180000B10FDF7BEFF00214DF20C10FDF7B9FF4B
:10319000A6214DF20D10FDF7B4FF00214DF20E10E7
:1031A000FDF7AFFFE5214DF20F10FDF7AAFF01215A
:1031B0004DF21010FDF7A5FF13214DF21110FDF790
:1031C000A0FF01214DF21210FDF79BFF54214DF29B
:1031D0001310FDF796FF01214DF21410FDF791FF3A
:1031E00082214DF21510FDF78CFF01214DF21610D2
:1031F000FDF787FFCA214DF21710FDF782FF02216C
:103200004DF21810FDF77DFF00214DF21910FDF76A
:1032100078FF02214DF21A10FDF773FF01214DF2E4
:103220001B10FDF76EFF02214DF21C10FDF769FF28
:1032300034214DF21D10FDF764FF02214DF21E10E6
:10324000FDF75FFF67214DF21F10FDF75AFF0221C6
:103250004DF22010FDF755FF84214DF22110FDF7AE
:1032600050FF02214DF22210FDF74BFFA4214DF239
:103270002310FDF746FF02214DF22410FDF741FF18
:10328000B7214DF22510FDF73CFF02214DF226102B
:10329000FDF737FFCF214DF22710FDF732FF022156
:1032A0004DF22810FDF72DFFDE214DF22910FDF71C
:1032B00028FF02214DF22A10FDF723FFF2214DF2E3
:1032C0002B10FDF71EFF02214DF22C10FDF719FF08
:1032D000FE214DF22D10FDF714FF03214DF22E10AB
:1032E000FDF70FFF10214DF22F10FDF70AFF03210C
:1032F0004DF23010FDF705FF33214DF23110FDF78F
:1033000000FF03214DF23210FDF7FBFE6D214DF25F
:103310003310FDF7F6FE00214FF45240FDF7F1FEA9
:1033200033214DF20120FDF7ECFE00214DF2022089
:10333000FDF7E7FE342101E09C0300204DF203205D
:10334000FDF7DFFE00214DF20420FDF7DAFE3A2101
:103350004DF20520FDF7D5FE00214DF20620FDF7C8
:10336000D0FE4A214DF20720FDF7CBFE00214DF2A1
:103370000820FDF7C6FE5C214DF20920FDF7C1FED5
:1033800000214DF20A20FDF7BCFE81214DF20B20F9
:10339000FDF7B7FE00214DF20C20FDF7B2FEA6218D
:1033A0004DF20D20FDF7ADFE00214DF20E20FDF790
:1033B000A8FEE5214DF20F20FDF7A3FE01214DF2FD
:1033C0001020FDF79EFE13214DF21120FDF799FE0E
:1033D00001214DF21220FDF794FE54214DF21320ED
:1033E000FDF78FFE01214DF21420FDF78AFE8221A8
:1033F0004DF21520FDF785FE01214DF21620FDF757
:1034000080FECA214DF21720FDF77BFE02214DF20E
:103410001820FDF776FE00214DF21920FDF771FE10
:1034200002214DF21A20FDF76CFE01214DF21B2006
:10343000FDF767FE02214DF21C20FDF762FE3421EC
:103440004DF21D20FDF75DFE02214DF21E20FDF71D
:1034500058FE67214DF21F20FDF753FE02214DF269
:103460002020FDF74EFE84214DF22120FDF749FE7C
:1034700002214DF22220FDF744FEA4214DF223202B
:10348000FDF73FFE02214DF22420FDF73AFEB72161
:103490004DF22520FDF735FE02214DF22620FDF7E5
:1034A00030FECF214DF22720FDF72BFE02214DF2F9
:1034B0002820FDF726FEDE214DF22920FDF721FE12
:1034C00002214DF22A20FDF71CFEF2214DF22B20A5
:1034D000FDF717FE02214DF22C20FDF712FEFE2112
:1034E0004DF22D20FDF70DFE03214DF22E20FDF7AC
:1034F00008FE10214DF22F20FDF703FE03214DF2AF
:103500003020FDF7FEFD33214DF23120FDF7F9FDAE
:1035100003214DF23220FDF7F4FD6D214DF23320F1
:10352000FDF7EFFD00214FF45340FDF7EAFD332195
:103530004DF20130FDF7E5FD00214DF20230FDF7BF
:10354000E0FD34214DF20330FDF7DBFD00214DF2AB
:103550000430FDF7D6FD3A214DF20530FDF7D1FDDF
:1035600000214DF20630FDF7CCFD4A214DF2073027
:10357000FDF7C7FD00214DF20830FDF7C2FD5C21CB
:103580004DF20930FDF7BDFD00214DF20A30FDF787
:10359000B8FD81214DF20B30FDF7B3FD00214DF256
:1035A0000C30FDF7AEFDA6214DF20D30FDF7A9FD63
:1035B00000214DF20E30FDF7A4FDE5214DF20F3054
:1035C000FDF79FFD01214DF21030FDF79AFD13210B
:1035D0004DF21130FDF795FD01214DF21230FDF74E
:1035E00090FD54214DF21330FDF78BFD01214DF27A
:1035F0001430FDF786FD82214DF21530FDF781FD77
:1036000001214DF21630FDF77CFDCA214DF2173035
:10361000FDF777FD02214DF21830FDF772FD002114
:103620004DF21930FDF76DFD02214DF21A30FDF714
:1036300068FD01214DF21B30FDF763FD02214DF2C3
:103640001C30FDF75EFD34214DF21D30FDF759FDB4
:1036500002214DF21E30FDF754FD67214DF21F305F
:10366000FDF74FFD02214DF22030FDF74AFD842188
:103670004DF22130FDF745FD02214DF22230FDF7DC
:1036800040FDA4214DF22330FDF73BFD02214DF218
:103690002430FDF736FDB7214DF22530FDF731FD21
:1036A00002214DF22630FDF72CFDCF214DF22730BF
:1036B000FDF727FD02214DF22830FDF722FDDE2126
:1036C0004DF22930FDF71DFD02214DF22A30FDF7A4
:1036D00018FDF2214DF22B30FDF713FD02214DF2C2
:1036E0002C30FDF70EFDFE214DF22D30FDF709FDCA
:1036F00003214DF22E30FDF704FD10214DF22F3045
:10370000FDF7FFFC03214DF23030FDF7FAFC3321C9
:103710004DF23130FDF7F5FC03214DF23230FDF76B
:10372000F0FC6D214DF23330FDF7EBFC00214FF43E
:103730005440FDF7E6FC33214DF20140FDF7E1FC7A
:1037400000214DF20240FDF7DCFC34214DF2034034
:10375000FDF7D7FC00214DF20440FDF7D2FC3A21E1
:103760004DF20540FDF7CDFC00214DF20640FDF77E
:10377000C8FC4A214DF20740FDF7C3FC00214DF281
:103780000840FDF7BEFC5C214DF20940FDF7B9FC95
:1037900000214DF20A40FDF7B4FC81214DF20B40AF
:1037A000FDF7AFFC00214DF20C40FDF7AAFCA6216D
:1037B0004DF20D40FDF7A5FC00214DF20E40FDF746
:1037C000A0FCE5214DF20F40FDF79BFC01214DF2DD
:1037D0001040FDF796FC13214DF21140FDF791FCCE
:1037E00001214DF21240FDF78CFC54214DF21340A3
:1037F000FDF787FC01214DF21440FDF782FC822188
:103800004DF21540FDF77DFC01214DF21640FDF70C
:1038100078FCCA214DF21740FDF773FC02214DF2EE
:103820001840FDF76EFC00214DF21940FDF769FCD0
:1038300002214DF21A40FDF764FC01214DF21B40BC
:1038400000E005E3FDF75DFC02214DF21C40FDF7B1
:1038500058FC34214DF21D40FDF753FC02214DF27E
:103860001E40FDF74EFC67214DF21F40FDF749FC5D
:1038700002214DF22040FDF744FC84214DF221400D
:10388000FDF73FFC02214DF22240FDF73AFCA42156
:103890004DF22340FDF735FC02214DF22440FDF7A7
:1038A00030FCB7214DF22540FDF72BFC02214DF2F3
:1038B0002640FDF726FCCF214DF22740FDF721FCE5
:1038C00002214DF22840FDF71CFCDE214DF229407B
:1038D000FDF717FC02214DF22A40FDF712FCF22100
:1038E0004DF22B40FDF70DFC02214DF22C40FDF76F
:1038F00008FCFE214DF22D40FDF703FC03214DF2A3
:103900002E40FDF7FEFB10214DF22F40FDF7F9FB95
:1039100003214DF23040FDF7F4FB33214DF23140ED
:10392000FDF7EFFB03214DF23240FDF7EAFB6D217D
:103930004DF23340FDF7E5FB00214FF45540FDF714
:10394000E0FB33214DF20150FDF7DBFB00214DF28E
:103950000250FDF7D6FB34214DF20350FDF7D1FBA9
:1039600000214DF20450FDF7CCFB3A214DF20550F9
:10397000FDF7C7FB00214DF20650FDF7C2FB4A21BF
:103980004DF20750FDF7BDFB00214DF20850FDF749
:10399000B8FB5C214DF20950FDF7B3FB00214DF25D
:1039A0000A50FDF7AEFB81214DF20B50FDF7A9FB4C
:1039B00000214DF20C50FDF7A4FBA6214DF20D5055
:1039C000FDF79FFB00214DF20E50FDF79AFBE5211C
:1039D0004DF20F50FDF795FB01214DF21050FDF710
:1039E00090FB13214DF21150FDF78BFB01214DF29D
:1039F0001250FDF786FB54214DF21350FDF781FB69
:103A000001214DF21450FDF77CFB82214DF215503F
:103A1000FDF777FB01214DF21650FDF772FBCA212D
:103A20004DF21750FDF76DFB02214DF21850FDF7D6
:103A300068FB00214DF21950FDF763FB02214DF2A6
:103A40001A50FDF75EFB01214DF21B50FDF759FBAB
:103A500002214DF21C50FDF754FB34214DF21D5054
:103A6000FDF74FFB02214DF21E50FDF74AFB672187
:103A70004DF21F50FDF745FB02214DF22050FDF79E
:103A800040FB84214DF22150FDF73BFB02214DF21A
:103A90002250FDF736FBA4214DF22350FDF731FBF8
:103AA00002214DF22450FDF72CFBB7214DF2255099
:103AB000FDF727FB02214DF22650FDF722FBCF2117
:103AC0004DF22750FDF71DFB02214DF22850FDF766
:103AD00018FBDE214DF22950FDF713FB02214DF2B8
:103AE0002A50FDF70EFBF2214DF22B50FDF709FB9A
:103AF00002214DF22C50FDF704FBFE214DF22D501A
:103B0000FDF7FFFA03214DF22E50FDF7FAFA1021CE
:103B10004DF22F50FDF7F5FA03214DF23050FDF72D
:103B2000F0FA33214DF23150FDF7EBFA03214DF25B
:103B30003250FDF7E6FA6D214DF23350FDF7E1FA10
:103B400000214FF45640FDF7DCFA33214DF20160BD
:103B5000FDF7D7FA00214DF20260FDF7D2FA3421C9
:103B60004DF20360FDF7CDFA00214DF20460FDF740
:103B7000C8FA3A214DF20560FDF7C3FA00214DF273
:103B80000660FDF7BEFA4A214DF20760FDF7B9FA6B
:103B900000214DF20860FDF7B4FA5C214DF2096096
:103BA000FDF7AFFA00214DF20A60FDF7AAFA812174
:103BB0004DF20B60FDF7A5FA00214DF20C60FDF708
:103BC000A0FAA6214DF20D60FDF79BFA00214DF2FF
:103BD0000E60FDF796FAE5214DF20F60FDF791FAC0
:103BE00001214DF21060FDF78CFA13214DF21160A6
:103BF000FDF787FA01214DF21260FDF782FA542198
:103C00004DF21360FDF77DFA01214DF21460FDF7CE
:103C100078FA82214DF21560FDF773FA01214DF219
:103C20001660FDF76EFACA214DF21760FDF769FACA
:103C300002214DF21860FDF764FA00214DF219607F
:103C4000FDF75FFA02214DF21A60FDF75AFA0121E1
:103C50004DF21B60FDF755FA02214DF21C60FDF795
:103C600050FA34214DF21D60FDF74BFA02214DF25E
:103C70001E60FDF746FA67214DF21F60FDF741FA1D
:103C800002214DF22060FDF73CFA84214DF22160C3
:103C9000FDF737FA02214DF22260FDF732FAA42136
:103CA0004DF22360FDF72DFA02214DF22460FDF75D
:103CB00028FAB7214DF22560FDF723FA02214DF2D3
:103CC0002660FDF71EFACF214DF22760FDF719FAA5
:103CD00002214DF22860FDF714FADE214DF2296031
:103CE000FDF70FFA02214DF22A60FDF70AFAF221E0
:103CF0004DF22B60FDF705FA02214DF22C60FDF725
:103D000000FAFE214DF22D60FDF7FBF903214DF283
:103D10002E60FDF7F6F910214DF22F60FDF7F1F955
:103D200003214DF23060FDF7ECF933214DF23160A3
:103D3000FDF7E7F903214DF23260FDF7E2F96D215D
:103D40004DF23360FDF7DDF955214FF47040FDF77A
:103D5000D8F9AA214FF20100FDF7D3F952214FF211
:103D60000200FDF7CEF908214FF20300FDF7C9F973
:103D700000214FF20400FDF7C4F9CC214FF431408B
:103D8000FDF7BFF900214BF20110FDF7BAF905214B
:103D90004FF43640FDF7B5F970214FF43740FDF789
:103DA000B0F970214BF20170FDF7ABF901214FF42E
:103DB0003840FDF7A6F903214BF60100FDF7A1F904
:103DC00003214BF60200FDF79CF903214BF603009B
:103DD000FDF797F902214FF43C40FDF792F90021DD
:103DE0004BF60140FDF78DF900214BF60240FDF73F
:103DF00088F9D0214FF44940FDF783F902214CF6B0
:103E00000110FDF77EF950214CF60210FDF779F90B
:103E100050214CF60310FDF774F950214CF60410B4
:103E2000FDF76FF900214FF45450FDF76AF9552161
:103E30004FF46850FDF765F94FF48850FDF752F9DB
:103E4000782002F0DEFD4FF42450FDF74BF9BDE081
:103E5000FE48808841F663118842F8D1E220FDF7E0
:103E600041F91D20FDF741F90220FDF73EF904203C
:103E7000FDF73BF9642002F0C4FDE020FDF732F9C4
:103E80000120FDF732F90A2002F0DFFDE020FDF706
:103E900029F90320FDF729F90C2002F0D6FD0120B5
:103EA000FDF720F90A2002F0D0FDE620FDF71AF90F
:103EB0002F20FDF71AF9FF20FDF717F9FF20FDF776
:103EC00014F9B020FDF70EF92020FDF70EF90020BF
:103ED000FDF70BF90320FDF708F940F21F30FDF75D
:103EE00004F90120FDF701F940F2DF10FDF7FDF8BC
:103EF0000020FDF7FAF8B420FDF7F4F80420FDF7F0
:103F0000F4F840F21F40FDF7F0F80020FDF7EDF85F
:103F10002E20FDF7EAF80020FDF7E7F80020FDF776
:103F2000E4F80020FDF7E1F80020FDF7DEF8B62008
:103F3000FDF7D8F80220FDF7D8F84FF40370FDF72D
:103F4000D4F80020FDF7D1F81720FDF7CEF81520A2
:103F5000FDF7CBF80020FDF7C8F80020FDF7C5F805
:103F6000F020FDF7BFF80320FDF7BFF82920FDF78B
:103F7000B9F8D020FDF7B6F80020FDF7B6F8BE205E
:103F8000FDF7B0F80520FDF7B0F8FE20FDF7ADF81D
:103F90000120FDF7AAF80020FDF7A7F80020FDF7A3
:103FA000A4F80020FDF7A1F8B820FDF79BF8032046
:103FB000FDF79BF80120FDF798F8BA20FDF792F87D
:103FC0000120FDF792F86420FDF754FB0120FDF776
:103FD00079FB01209E4908604FF6FF70FDF7BDFC9C
:103FE0001FB000BD2DE9F04F05460E461746984616
:103FF000DDF824A04FF0000B781B401C1FFA80FB5B
:10400000344613E021462846FDF7A8F8FDF789F865
:104010004FF0000906E08F48A0F800A009F1010068
:104020001FFA80F9D945F6DB601C84B24445E9DD0E
:10403000BDE8F08F2DE9F84F07460D4690469946AA
:10404000DDF828B0A8EB0700401C1FFA80FAA9EBA6
:104050000500401C80B20090002414E0281981B2B1
:104060003846FDF77BF8FDF75CF8002607E004FB17
:104070000A603BF8100077490880701C86B25645EC
:10408000F5DB601C84B200988442E7DBBDE8F88F62
:104090002DE9FF4F84B081468A46002003900290AC
:1040A0000698A0EB09050798A0EB0A06CDF8049046
:1040B000CDF800A0002D01DD012705E00DB9002796
:1040C00002E04FF0FF376D42002E02DD4FF0010895
:1040D00006E016B94FF0000802E04FF0FF387642D4
:1040E000B54201DD2C4600E034464FF0000B21E0E4
:1040F000009A91B2019A90B2FDF739FA03982844D8
:1041000003900298304402900398A04205DD039882
:10411000001B03900198384401900298A04205DDED
:104120000298001B02900098404400900BF101009F
:104130001FFA80FB601C8345DADD08B0BDE8F08F14
:10414000F0B504460D4616461F462B463246294614
:104150002046FFF79DFF3B46224629462046FFF7B3
:1041600097FF3B46324639462046FFF791FF3B46D4
:10417000324629463046FFF78BFFF0BD2DE9F0436C
:1041800006460F469046002445460320A0EB48090A
:104190003CE07A1B91B2321990B2FDF7E8F93A1B74
:1041A00091B2721990B2FDF7E2F93A1991B272190F
:1041B00090B2FDF7DCF97A1991B2321990B2FDF79D
:1041C000D6F97A1991B2321B90B2FDF7D0F93A19AB
:1041D00091B2721B90B2FDF7CAF97A1B91B2321BF1
:1041E00090B2FDF7C4F93A1B91B2721B90B2FDF781
:1041F000BEF9641CB9F1000F03DAA000801D8144F0
:1042000004E0601B80000A3081446D1EAC42C0DDBA
:10421000BDE8F0832DE9F84F80460E4617461C4650
:10422000B3462046E31704EB5373DB1021464FEAF5
:10423000E47C04EB5C7C4FEAEC0CA4EBCC0CBCF112
:10424000000F09D04FF0010C08E000009C03002093
:10425000808121420008006C4FF0000C634422462C
:1042600004EBD27C4FEA6C0C03FB0CF3DBB2009343
:10427000A7F12000C7B2002556E00C2C07D107EBB0
:1042800047009F4901EB800010F8059013E0102CC7
:1042900005D19C4800EB071010F805900BE0182C96
:1042A00007D107EBC700984901EB800010F8059093
:1042B00001E0BDE8F88F4FF0000A2FE009F0800020
:1042C00030B19248028831464046FDF75EF907E07A
:1042D0000A9828B98E48028831464046FDF755F9BC
:1042E0004FEA49604FEA1069701C86B289484088DD
:1042F000B04200DCDDE7A6EB0B00A0420AD15E462F
:1043000008F101001FFA80F882480088404500DC6F
:10431000CFE706E00AF1010000F0FF0ABAF1080F4A
:10432000CCDB00BF681CC5B200988542A5DB00BF8E
:10433000BFE710B50246012000E050430B1EA1F17B
:104340000104E1B2F9D110BD2DE9FF4F81B007465C
:1043500091461E460E9D4FF0000A002439E0301BA6
:10436000401EC1B20A20FFF7E4FFB9FBF0F00A21BA
:10437000B0FBF1F201FB1208BAF1000F16D1701E6A
:10438000A04213DDB8F1000F0ED10020AB4605EBC3
:10439000DB71491001FB0471009088B22B4620228A
:1043A0000299FFF737FF12E04FF0010A0020AB46F9
:1043B00005EBDB71491001FB0471009088B208F134
:1043C0003001CAB22B460299FFF724FF00BF601CE0
:1043D000C4B2B442C3DB05B0BDE8F08F2DE9FF4F96
:1043E00082B0064692461F46DDE90F480020019044
:1043F00000254DE0781B401EC1B20A20FFF799FF4F
:10440000BAFBF0F00A21B0FBF1F201FB12090198AE
:1044100050BB781EA84227DDB9F1000F22D108F069
:10442000800078B108F00100A34604EBDB7149106D
:1044300001FB0561009088B2234630220399FFF703
:10444000E9FE0EE008F00100A34604EBDB71491021
:1044500001FB0561009088B2234620220399FFF7F3
:10446000D9FE13E00120019008F00100A34604EBFF
:10447000DB71491001FB0561009088B209F1300140
:10448000CAB223460399FFF7C5FE00BF681CC5B238
:10449000BD42AFDB06B0BDE8F08F2DE9F84704461A
:1044A0000D4690469946DDE9096704F0FF0A08EBDE
:1044B00004001FFA80F809EB05001FFA80F916E0E6
:1044C000444502DB5446A81985B24D4500DB14E093
:1044D000002000903A78334629462046FFF79AFE9E
:1044E000304606EBD07104EB61018CB27F1C38784A
:1044F0007E2802DC38782028E2DA00BFBDE8F887A1
:10450000845E0108F8620108E868010814000020D0
:10451000160000209C03002070B50546002405E02D
:10452000601CC4B2C82C01DD002070BD02213A48D5
:1045300003F0C1FB0028F3D02946374803F068FB9D
:10454000002405E0601CC4B2C82C01DD0020ECE7AB
:104550000121314803F0AFFB0028F3D02E4803F0CF
:1045600059FBC0B2E1E700B587B00121082003F094
:10457000EFF90121880303F0F8F94FF46040ADF83A
:10458000180018208DF81B0003208DF81A0006A9CA
:10459000224802F021FF4FF46041204802F0C9FF99
:1045A0000020ADF804004FF48270ADF80600002042
:1045B000ADF808000220ADF80A000120ADF80C00AB
:1045C0004002ADF80E003820ADF810000020ADF824
:1045D00012000720ADF8140001A90F4803F042FAB9
:1045E00001210D4803F0E3FAFF20FFF795FF07B024
:1045F00000BD10B50446084800884FF6C771084052
:1046000005490880084600882043088001210248A7
:1046100003F0CDFA10BD000000380040000C01404E
:1046200010B500240020D14908609020FFF774FFE6
:104630000020FFF771FF0020FFF76EFF0020FFF75B
:104640006BFFFF20FFF768FF44EA0024FF20FFF71D
:1046500063FF04430120C649C1F8B001204610BDE4
:1046600008B50121082003F073F94FF48050ADF82C
:10467000000010208DF8030003208DF80200694629
:10468000BC4802F0A9FE4FF48051BA4802F051FF35
:104690000120B6490860FFF766FF0020FFF7A9FF79
:1046A000FFF7BEFFB449088008BD10B50024002004
:1046B000AE4908600520FFF72FFFFF20FFF72CFF12
:1046C00004460120AA49C1F8B001204610BD10B52A
:1046D00004460020A54908600120FFF71DFF204681
:1046E000FFF71AFF0120A249C1F8B00110BD10B5B3
:1046F00000209E4908600620FFF70EFF01209C491C
:10470000C1F8B00110BD10B5002098490860042020
:10471000FFF702FF01209649C1F8B00110BD2DE955
:10472000F04106460C4617460020904908600320D9
:10473000FFF7F2FEC4F30740FFF7EEFEC4F30720D5
:10474000FFF7EAFEE0B2FFF7E7FE002505E0FF20F5
:10475000FFF7E2FE7055681C85B2BD42F7DB012011
:1047600082490860BDE8F08110B500BFFFF79DFFEA
:1047700000F001000028F9D110BD2DE9F0410646F6
:104780000C461746FFF7B3FF002078490860022067
:10479000FFF7C2FEC4F30740FFF7BEFEC4F30720D5
:1047A000FFF7BAFEE0B2FFF7B7FE002504E0705D48
:1047B000FFF7B2FE681C85B2BD42F8DB01206B49F1
:1047C0000860FFF7D1FFBDE8F0812DE9F041074611
:1047D0000E461446F0B2C0F58075AC4200DC2546AA
:1047E00012E02A4631463846FFF7C7FFAC4200D1F7
:1047F0000BE02F442E44601B84B2B4F5807F02DDB1
:104800004FF4807500E02546EBE700BFBDE8F0817E
:1048100010B50446214659A00FF0EAF92403FFF72A
:1048200066FFFFF7A1FF0020504908602020FFF736
:1048300073FEC4F30740FFF76FFEC4F30720FFF7D2
:104840006BFEE0B2FFF768FE01204949C1F8B001F4
:10485000FFF78AFF10BD2DE9F05F81460F4616462F
:10486000DFF820B14FEA1738C7F30B0ACAF58054B6
:10487000A64200DC344644E04FEA08314FF480524F
:104880005846FFF74CFF002508E00AEB05001BF82F
:104890000000FF2800D003E0681C85B2A542F4DBCD
:1048A00000BFA54216DA4046FFF7B2FF002507E039
:1048B00019F8050005EB0A010BF80100681C85B228
:1048C000A542F5DB4FEA08314FF480525846FFF716
:1048D0007CFF04E0224639464846FFF776FFA642B1
:1048E00000D10FE008F101084FF0000AA14427446D
:1048F000301B86B2B6F5805F02DD4FF4805400E0D5
:104900003446B9E700BFBDE8F09F10B5FFF7EFFEF2
:10491000FFF72AFF002015490860C720FFF7FCFDBC
:1049200001201349C1F8B001FFF71EFF10BD10B5FB
:1049300000200E490860B920FFF7EEFD01200C4968
:10494000C1F8B001032002F05CF810BD10B50020E2
:1049500006490860AB20FFF7DFFD01200449C1F8DC
:10496000B001032002F04DF810BD0000B0812142DB
:1049700000802142000C01401800002066653A25A5
:10498000780D0A00AA03002001460020012900D06A
:1049900011B9FE4B197000E0262070470146FC4A11
:1049A000506820F0FF0008435060704770B504461F
:1049B00005E0F748456B05F0450000B100E0F8E779
:1049C00000BF042004F0AFFC20B1042004F0B5FCCB
:1049D000032070BD012004F0A6FC20B1012004F0EA
:1049E000ACFC0120F5E7EA480069A04201D01020A4
:1049F000EFE740F2FF50E649886308464069082126
:104A00000840C0B2E5E72DE9FC4107460D46002607
:104A100000240020009001900820DE49086010204A
:104A20004860402088600020C8604FF480600861C2
:104A3000084604F001FC1020FFF7B8FF044614B14B
:104A40002046BDE8FC81D44800880004D1490860B4
:104A500037204860402088600020C8604FF48060A4
:104A60000861084604F0E8FB3720FFF79FFF044683
:104A70000CB12046E5E74FF0FF30C8490860082038
:104A80004860302088600220C86000200861012052
:104A90004861084604F0F9FB0020BE490860332055
:104AA0004860402088600020C8604FF48060086142
:104AB000084604F0C1FB3320FFF778FF04460CB131
:104AC0002046BEE70CE04FF4001004F02CFC38B197
:104AD00004F0FDFB4DF82600761C022E00D306E004
:104AE000AB48406B40F22A6108400028EBD000BF81
:104AF000082004F018FC20B1082004F01EFC04205B
:104B00009FE7022004F00FFC20B1022004F015FC06
:104B1000022096E7202004F006FC20B1202004F0BB
:104B20000CFC06208DE74FF4007004F0FCFB28B16C
:104B30004FF4007004F001FC072082E740F2FF50C0
:104B400004F0FBFB00980006009901F47F4140EA65
:104B50000120009901F47F0140EA1120009940EA08
:104B60001160686001980006019901F47F4140EAF4
:104B70000120019901F47F0140EA1120019940EAE6
:104B80001160286020465CE77CB5054600240020C3
:104B90000090019000260DB1022600E000267C481E
:104BA000406900F0007008B10E207CBD7A49098888
:104BB00088B26946FFF727FF04460CB12046F4E7A8
:104BC000019800F4802060B37348008800047149A4
:104BD000086037204860402088600020C8604FF49B
:104BE00080600861084604F027FB3720FFF7DEFEEF
:104BF00004460CB12046D8E76648066006206549A1
:104C00004860402088600020C8604FF480600861E0
:104C1000084604F011FB0620FFF7C8FE04462046B4
:104C2000C3E72520C1E770B5044600255C4800783D
:104C3000032801D1272070BD5948007838B1584861
:104C40000078012803D056480078022818D1022C99
:104C500001D32720EFE7E0B2FFF796FF05467DB9C5
:104C60004B48406820F4C0504949486008464068B5
:104C7000A1B240EAC1204649486008464068486001
:104C80002846D8E710B50446424804600720414949
:104C90004860402088600020C8604FF48060086150
:104CA000084604F0C9FA0720FFF780FE10BDF0B5F2
:104CB0000146002000223A4B1B7881F85630364BD3
:104CC0001B88A1F85430374B1B681A0E93090B70E0
:104CD000C2F383034B7002F003038B70314B1B68EC
:104CE000C3F30742CA702F4B1B88C3F307220A7114
:104CF0002C4B1A784A715B681A0E1301CB80294B32
:104D00005B68C3F30742CB8843EA1213CB8002F0FF
:104D10000F030B72234B9B88C3F30722D3094B72FB
:104D2000C2F380138B72C2F34013CB72C2F3001331
:104D30000B7300234B731A4B1B783BB1184B1B783A
:104D4000012B03D0164B1B78032B5ED193071B0D51
:104D50000B61144B1A790B6943EA82030B61114B07
:104D60009B681A0E0B6943EA92130B61C2F3C203EC
:104D70000B7502F007034B750A4B9B68C3F30742A0
:104D800053098B75C2F38203CB750DE0240000201C
:104D900000800140C813002020000020DC13002008
:104DA0001C000020F413002093075B0F0B76F74BD9
:104DB0001B89C3F307220B7E43EAD2130B760B69E0
:104DC0005B1C0024C1E912340B7E9B1C012404FAF5
:104DD00003F3DC17D1E91256A5FB037C06FB03C3E2
:104DE00005FB0433C1E912730C7A0123A3400B6560
:104DF0000024D1E912650B6DA6FB037C05FB03C300
:104E000006FB0433C1E912732EE0E14B1B78022B41
:104E10002AD1DE4B1A7993069B0A0B61DB4B9B6808
:104E20001A0E0B6943EA02230B61D84B9B68C3F34C
:104E300007420B6913430B61D44B1B89C3F3072251
:104E40000B695B1C4FF40074A3FB04464FF48063B2
:104E50000025A4FB037C06FB03C304FB0533C1E967
:104E600012734FF400730B65C2F3801301F8193FFE
:104E700093065B0E4B70C54B1A7A4B7843EAD213FC
:104E80004B7002F07F038B70C04BDB681A0ED309A6
:104E9000CB70C2F341130B71C2F382034B719307C2
:104EA0001B0F8B71B94BDB68C3F307428B7943EA65
:104EB00092138B71C2F34013CB7100230B7202F07B
:104EC00001034B72B14B9B89C3F30722D3098B7249
:104ED000C2F38013CB72C2F340130B73C2F30013FF
:104EE0004B73C2F381038B7302F00303CB73A74BA5
:104EF0001A7B53080B7401234B74A64B1B681A0EC4
:104F0000CA741939A34B1B68C3F307421402CC853A
:104F1000A04B1B88C3F30722CB8D1343CB859D4B3E
:104F20001A7814060C635B681A0E0B6B43EA024492
:104F30000C63984B5B68C3F307420B6B43EA022494
:104F40000C63944B9B88C3F307220B6B13430B63D7
:104F5000904B1A7934235A548E4B9B681A0E352382
:104F60005A548C4B9B68C3F3074214068C63894BDD
:104F70001B89C3F307228B6B43EA02448C63854B86
:104F80001A7A8B6B43EA02248C63824BDB681A0E1D
:104F90008B6B13438B637F4BDB68C3F307423C236C
:104FA0005B5C43EA12143C235C5413071C0DCC8752
:104FB000784B9B89C3F30722CB8F1343CB87754B69
:104FC0001A7B540840235C54012441235C54F0BDF7
:104FD00070B500264FF4803505E06F48446B04F04F
:104FE000450000B103E0281EA5F10105F5D100BF81
:104FF00015B104F0040028B10326042004F09DF943
:10500000304670BD012004F08EF918B10126012050
:1050100004F093F940F2FF5004F08FF93046F0E7C6
:105020002DE9F04105460E464FF0000805E05A48CC
:10503000476B07F0450000B100E0F8E700BF04202F
:1050400004F071F928B1042004F077F90320BDE8D9
:10505000F081012004F067F920B1012004F06DF91E
:105060000120F4E74C480069A84201D01020EEE787
:1050700040F2FF5004F061F94748446904F460408D
:1050800018B9200C30804046E1E704F4005008B124
:105090001320DCE704F4804008B11020D7E704F4C3
:1050A000004008B10F20D2E74046D0E738B50024D1
:1050B0000120009004F0ABF808B9252038BD344831
:1050C0000078042821D0002034490860022048607C
:1050D000C02088600020C8604FF4806008610846E6
:1050E00004F0AAF8FFF774FF04460CB12046E5E788
:1050F0002948406927490860274880694860264850
:10510000C06988602448006AC8602148007858B1A6
:105110001F480078012807D01D480078062803D0D2
:105120001B480078022816D100201C490860032083
:105130004860402088600020C8604FF480600861AB
:10514000084604F079F869460320FFF769FF044632
:105150000CB12046B2E70E480078032820D1BDF8F4
:10516000000000040D49086003204860402088606A
:105170000020C8604FF480600861084604F05CF8C5
:10518000FFF726FF04465CB1204697E7F4130020A2
:105190001C0000200414002000800140C8130020DF
:1051A000FE480078042827D0BDF80000FC490860BC
:1051B000BDF800000004FB49086009204860C020D9
:1051C00088600020C8604FF480600861084604F0E1
:1051D00033F8FFF7FDFE04460CB120466EE7F248B7
:1051E0004069F2490860F04880694860EE48C0694B
:1051F0008860ED48006AC86000205FE710B505E0F0
:10520000E948446B04F0450000B100E0F8E700BF56
:10521000042004F088F820B1042004F08EF8032064
:1052200010BD40F2FF5004F088F80020F8E770B598
:1052300000264FF4803505E0DB48446B04F0450060
:1052400000B103E0281EA5F10105F5D100BF15B19D
:1052500004F0040028B10326042004F06EF8304660
:1052600070BD04F0400018B10026402004F065F83D
:105270003046F5E770B500254FF4803404E0802017
:1052800004F051F800B103E0201EA4F10104F6D1AE
:1052900000BF0CB9032070BD40F2FF5004F04DF880
:1052A0002846F8E72DE9F0470027002400260025CE
:1052B000A046A146B220BE4908750020086048609B
:1052C0008860C8600861084603F076FF032003F099
:1052D00093FF012003F08DFF00BF12E00020B149D1
:1052E000086048608860C8604FF4806008610846C4
:1052F00003F0A2FFFFF7BEFF044604B903E0781CE9
:10530000C7B24A2FEADB00BF14B12046BDE8F087E0
:105310004FF4D570A3490860082048604020886099
:105320000020C8604FF480600861084603F084FFE5
:10533000FFF77DFF044624B90120984908704FF01B
:1053400080490020974908603720486040208860E5
:105350000020C8604FF480600861084603F06CFFCD
:105360003720FFF723FB0446002C4BD134E000200C
:105370008C49086037204860402088600020C86061
:105380004FF480600861084603F056FF3720FFF7AE
:105390000DFB04460CB12046B8E7864849EA0000F8
:1053A0008049086029204860402088600020C8604B
:1053B0004FF480600861084603F03EFFFFF71EFFD0
:1053C00004460CB12046A1E777484669012080EAEF
:1053D000D67080F001086D1CB8F1000F03D14FF6B4
:1053E000FF708542C3D34FF6FF70854202D31B2462
:1053F00020468BE706F08040061E32D00220674927
:1054000008702EE01CE06C48664908600120486086
:10541000402088600020C8604FF480600861084622
:1054200003F00AFFFFF7EAFE04460CB120466DE7E1
:105430005D484669012080EAD67080F001086D1C45
:10544000B8F1000F03D14FF6FF708542DBD34FF662
:10545000FF70854202D31B24204657E703204F49A3
:105460000870204652E77CB5002500240121302039
:1054700002F06EFA012140F2024002F05CFA4FF4B1
:10548000F850ADF8000018208DF8030003208DF8C7
:1054900002006946494801F09FFF0420ADF8000072
:1054A00018208DF8030003208DF802006946444857
:1054B00001F092FF8020ADF8000048208DF8030035
:1054C00003208DF8020069463D4801F085FF03F096
:1054D00065FE31208DF8040000208DF805008DF860
:1054E000060001208DF8070001A801F0A6FBFFF7D8
:1054F000D9FE044614B9FFF7D9FD04461CB931485A
:10550000FFF7D5FB044634B92E49B1F8541008040E
:10551000FFF7B8FB04461CB90120FFF784FB0446E3
:105520001CB11E480078032812D1264890F8560076
:1055300020B1244890F85600012801D10A2500E046
:1055400004252846FFF72AFA0020FFF71DFA044633
:1055500020467CBD10B5002003F04EFE002010BD9B
:1055600070B58CB006460C4615460121022002F0AB
:10557000E2F9154803F0E8FC0021134803F0B1FDFF
:1055800009488030019002960395A00804900020FD
:105590000590802006908000079017E01C000020F6
:1055A00020000020C813002000800140F4130020D8
:1055B000B0130020000010800080FF800010014028
:1055C0000014014018140020440402408000089098
:1055D000002009904FF400500A9000200B9001A980
:1055E000FA4803F053FD0021F84803F07AFD0CB0AF
:1055F00070BD0146002002E04910421CD0B20129D2
:10560000FAD170472DE9F84F8146174698460A9C13
:105610004FF0000AD3464D464FF0FF36B9F1000F68
:1056200002D12620BDE8F88F0020E949C862E94888
:105630000078022805D10402780A40EAC8574FEAE8
:1056400068280020E44988604860401E0860012006
:1056500048610020C8600861084603F016FEDC4877
:10566000406900F0007008B10E20DBE7002C21DD5E
:10567000B4F5006F1EDC601E2040D8B92046FFF74D
:10568000B8FF0090D54804601020D44948604020FD
:1056900088600020C8604FF480600861084603F00D
:1056A000CBFD1020FFF782F98246BAF1000F03D03C
:1056B0005046B7E72620B5E700980001C649886044
:1056C000084644604FF0FF30086001204861022026
:1056D000C86000200861084603F0D7FDBF48076096
:1056E0001120BE494860402088600020C8604FF407
:1056F00080600861084603F09FFD1120FFF756F90E
:105700008246BAF1000F01D050468BE7B4480078CA
:1057100000285AD101F0C8F918E04FF4004003F016
:1057200002FE78B14FF0000B06E0A9488030006817
:1057300045F82B000BF1010BBBF1080FF5D3203519
:10574000A84E03E00EB904206CE7761EA048406B1B
:1057500040F22A6108400028DFD0082003F0E3FD72
:1057600020B1082003F0E9FD04205BE7022003F0EC
:10577000DAFD20B1022003F0E0FD022052E72020F4
:1057800003F0D1FD20B1202003F0D7FD062049E72A
:105790004FF4007003F0C7FD28B14FF4007003F020
:1057A000CCFD07203EE703E003F091FD28602D1DAE
:1057B0004FF4001003F0B7FD0028F5D101F076F9A1
:1057C00040F2FF5003F0B9FD32E08548007801282F
:1057D0002ED1002221464846FFF7C2FE0020824912
:1057E000087082490870824908707948C06B40F29D
:1057F0002A3108437649C863012003F01AFD00E00E
:10580000761E72484438006800F4005038B9784871
:10581000007820B97448007808B9002EF0D10EB98C
:105820000420FFE67048007810B16F4890F800A09F
:105830005046F7E62DE9FF5F17469846DDE90E462C
:105840004FF00009CA464FF0FF356A4900980860DA
:1058500000205F49C8625F480078022805D1040231
:10586000780A40EAC8574FEA682800205A498860F9
:105870004860401E0860012048610020C86008613F
:10588000084603F002FD5248406900F0007018B16C
:105890000E2004B0BDE8F09F002C21DDB4F5006FB0
:1058A0001EDC601E2040D8B92046FFF7A2FE8346CA
:1058B0004A48046010204949486040208860002020
:1058C000C8604FF480600861084603F0B5FC102002
:1058D000FFF76CF88146B9F1000F03D04846D8E7CE
:1058E0002620D6E7012E70D906FB04F0B0F1007F28
:1058F00001D32620CDE74FEA0B103749886006FB1D
:1059000004F048604FF0FF30086001204861022039
:10591000C86000200861084603F0B7FC2F48076004
:1059200012202E494860402088600020C8604FF453
:1059300080600861084603F07FFC1220FFF736F80C
:105940008146B9F1000F01D04846A2E7244800780B
:1059500000287DD101F0A8F81EE04FF4004003F0CC
:10596000E2FCA8B14FF0000A08E019488030006856
:105970002049096841F82A000AF1010ABAF1080F22
:10598000F3D31C48006820301A490860154D03E025
:105990000DB904207DE76D1E0D48406B40F22A31A1
:1059A00008400028D9D0082003F0BDFC20B1082011
:1059B00003F0C3FC04206CE7022003F0B4FCD8B170
:1059C000022003F0BAFC022063E7A4E04404024092
:1059D000008001401C000020DC130020C8130020C0
:1059E00024000020FFFF7F0026000020250000206B
:1059F0002700002028000020202003F094FC20B184
:105A0000202003F09AFC062043E74FF4007003F0D7
:105A10008AFC28B14FF4007003F08FFC072038E7B0
:105A200009E003F054FCFA4909680860F848006886
:105A3000001DF74908604FF4001003F074FC0028C3
:105A4000EFD14FF4807003F06EFC20B3F14800E01A
:105A500028E0007838B1EF480078012803D0ED48FD
:105A60000078022817D10020EB4908600C2048601C
:105A7000402088600020C8604FF4806008610846BC
:105A800003F0DAFB0C20FEF791FF8146B9F1000F1D
:105A900001D04846FDE601F009F840F2FF5003F05E
:105AA0004CFC38E0DD480078012834D106FB04F1D5
:105AB00000220098FFF754FD0020D949087001200A
:105AC000D84908700020D8490870D848C06B40F207
:105AD0002A310843D549C8630846C06A40F0080027
